{
  "_format": "hh-sol-artifact-1",
  "contractName": "Create",
  "sourceName": "contracts/VotingContract.sol",
  "abi": [
    {
      "inputs": [],
      "stateMutability": "nonpayable",
      "type": "constructor"
    },
    {
      "anonymous": false,
      "inputs": [
        {
          "indexed": false,
          "internalType": "uint256",
          "name": "candidateId",
          "type": "uint256"
        },
        {
          "indexed": false,
          "internalType": "string",
          "name": "name",
          "type": "string"
        },
        {
          "indexed": false,
          "internalType": "string",
          "name": "age",
          "type": "string"
        },
        {
          "indexed": false,
          "internalType": "uint256",
          "name": "voteCount",
          "type": "uint256"
        },
        {
          "indexed": false,
          "internalType": "string",
          "name": "image",
          "type": "string"
        },
        {
          "indexed": false,
          "internalType": "address",
          "name": "_address",
          "type": "address"
        },
        {
          "indexed": false,
          "internalType": "string",
          "name": "ipfs",
          "type": "string"
        }
      ],
      "name": "CandidateCreate",
      "type": "event"
    },
    {
      "anonymous": false,
      "inputs": [
        {
          "indexed": false,
          "internalType": "uint256",
          "name": "voter_voterId",
          "type": "uint256"
        },
        {
          "indexed": false,
          "internalType": "string",
          "name": "voter_name",
          "type": "string"
        },
        {
          "indexed": false,
          "internalType": "string",
          "name": "voter_image",
          "type": "string"
        },
        {
          "indexed": false,
          "internalType": "address",
          "name": "voter_address",
          "type": "address"
        },
        {
          "indexed": false,
          "internalType": "uint256",
          "name": "voter_allowed",
          "type": "uint256"
        },
        {
          "indexed": false,
          "internalType": "bool",
          "name": "voter_voted",
          "type": "bool"
        },
        {
          "indexed": false,
          "internalType": "uint256",
          "name": "voter_vote",
          "type": "uint256"
        },
        {
          "indexed": false,
          "internalType": "string",
          "name": "voter_ipfs",
          "type": "string"
        }
      ],
      "name": "voterCreated",
      "type": "event"
    },
    {
      "inputs": [],
      "name": "_candidateId",
      "outputs": [
        {
          "internalType": "uint256",
          "name": "_value",
          "type": "uint256"
        }
      ],
      "stateMutability": "view",
      "type": "function"
    },
    {
      "inputs": [],
      "name": "_voterId",
      "outputs": [
        {
          "internalType": "uint256",
          "name": "_value",
          "type": "uint256"
        }
      ],
      "stateMutability": "view",
      "type": "function"
    },
    {
      "inputs": [
        {
          "internalType": "uint256",
          "name": "",
          "type": "uint256"
        }
      ],
      "name": "candidateAddress",
      "outputs": [
        {
          "internalType": "address",
          "name": "",
          "type": "address"
        }
      ],
      "stateMutability": "view",
      "type": "function"
    },
    {
      "inputs": [
        {
          "internalType": "address",
          "name": "",
          "type": "address"
        }
      ],
      "name": "candidates",
      "outputs": [
        {
          "internalType": "uint256",
          "name": "candidateId",
          "type": "uint256"
        },
        {
          "internalType": "string",
          "name": "name",
          "type": "string"
        },
        {
          "internalType": "string",
          "name": "age",
          "type": "string"
        },
        {
          "internalType": "uint256",
          "name": "voteCount",
          "type": "uint256"
        },
        {
          "internalType": "string",
          "name": "image",
          "type": "string"
        },
        {
          "internalType": "address",
          "name": "_address",
          "type": "address"
        },
        {
          "internalType": "string",
          "name": "ipfs",
          "type": "string"
        }
      ],
      "stateMutability": "view",
      "type": "function"
    },
    {
      "inputs": [],
      "name": "getCandidate",
      "outputs": [
        {
          "internalType": "address[]",
          "name": "",
          "type": "address[]"
        }
      ],
      "stateMutability": "view",
      "type": "function"
    },
    {
      "inputs": [],
      "name": "getCandidateLength",
      "outputs": [
        {
          "internalType": "uint256",
          "name": "",
          "type": "uint256"
        }
      ],
      "stateMutability": "view",
      "type": "function"
    },
    {
      "inputs": [
        {
          "internalType": "address",
          "name": "_address",
          "type": "address"
        }
      ],
      "name": "getCandidatedata",
      "outputs": [
        {
          "internalType": "string",
          "name": "",
          "type": "string"
        },
        {
          "internalType": "string",
          "name": "",
          "type": "string"
        },
        {
          "internalType": "uint256",
          "name": "",
          "type": "uint256"
        },
        {
          "internalType": "string",
          "name": "",
          "type": "string"
        },
        {
          "internalType": "uint256",
          "name": "",
          "type": "uint256"
        },
        {
          "internalType": "string",
          "name": "",
          "type": "string"
        },
        {
          "internalType": "address",
          "name": "",
          "type": "address"
        }
      ],
      "stateMutability": "view",
      "type": "function"
    },
    {
      "inputs": [],
      "name": "getVotedVotersList",
      "outputs": [
        {
          "internalType": "address[]",
          "name": "",
          "type": "address[]"
        }
      ],
      "stateMutability": "view",
      "type": "function"
    },
    {
      "inputs": [
        {
          "internalType": "address",
          "name": "_address",
          "type": "address"
        }
      ],
      "name": "getVoterData",
      "outputs": [
        {
          "internalType": "uint256",
          "name": "",
          "type": "uint256"
        },
        {
          "internalType": "string",
          "name": "",
          "type": "string"
        },
        {
          "internalType": "string",
          "name": "",
          "type": "string"
        },
        {
          "internalType": "address",
          "name": "",
          "type": "address"
        },
        {
          "internalType": "string",
          "name": "",
          "type": "string"
        },
        {
          "internalType": "uint256",
          "name": "",
          "type": "uint256"
        },
        {
          "internalType": "bool",
          "name": "",
          "type": "bool"
        }
      ],
      "stateMutability": "view",
      "type": "function"
    },
    {
      "inputs": [],
      "name": "getVoterLength",
      "outputs": [
        {
          "internalType": "uint256",
          "name": "",
          "type": "uint256"
        }
      ],
      "stateMutability": "view",
      "type": "function"
    },
    {
      "inputs": [],
      "name": "getVoterList",
      "outputs": [
        {
          "internalType": "address[]",
          "name": "",
          "type": "address[]"
        }
      ],
      "stateMutability": "view",
      "type": "function"
    },
    {
      "inputs": [
        {
          "internalType": "address",
          "name": "_address",
          "type": "address"
        },
        {
          "internalType": "string",
          "name": "_name",
          "type": "string"
        },
        {
          "internalType": "string",
          "name": "_age",
          "type": "string"
        },
        {
          "internalType": "string",
          "name": "_image",
          "type": "string"
        },
        {
          "internalType": "string",
          "name": "_ipfs",
          "type": "string"
        }
      ],
      "name": "setCandidate",
      "outputs": [],
      "stateMutability": "nonpayable",
      "type": "function"
    },
    {
      "inputs": [
        {
          "internalType": "address",
          "name": "_candidateAddress",
          "type": "address"
        },
        {
          "internalType": "uint256",
          "name": "_candidateVoteId",
          "type": "uint256"
        }
      ],
      "name": "vote",
      "outputs": [],
      "stateMutability": "nonpayable",
      "type": "function"
    },
    {
      "inputs": [
        {
          "internalType": "uint256",
          "name": "",
          "type": "uint256"
        }
      ],
      "name": "votedVoters",
      "outputs": [
        {
          "internalType": "address",
          "name": "",
          "type": "address"
        }
      ],
      "stateMutability": "view",
      "type": "function"
    },
    {
      "inputs": [
        {
          "internalType": "address",
          "name": "_address",
          "type": "address"
        },
        {
          "internalType": "string",
          "name": "_name",
          "type": "string"
        },
        {
          "internalType": "string",
          "name": "_image",
          "type": "string"
        },
        {
          "internalType": "string",
          "name": "_ipfs",
          "type": "string"
        }
      ],
      "name": "voterRight",
      "outputs": [],
      "stateMutability": "nonpayable",
      "type": "function"
    },
    {
      "inputs": [
        {
          "internalType": "address",
          "name": "",
          "type": "address"
        }
      ],
      "name": "voters",
      "outputs": [
        {
          "internalType": "uint256",
          "name": "voter_voterId",
          "type": "uint256"
        },
        {
          "internalType": "string",
          "name": "voter_name",
          "type": "string"
        },
        {
          "internalType": "string",
          "name": "voter_image",
          "type": "string"
        },
        {
          "internalType": "address",
          "name": "voter_address",
          "type": "address"
        },
        {
          "internalType": "uint256",
          "name": "voter_allowed",
          "type": "uint256"
        },
        {
          "internalType": "bool",
          "name": "voter_voted",
          "type": "bool"
        },
        {
          "internalType": "uint256",
          "name": "voter_vote",
          "type": "uint256"
        },
        {
          "internalType": "string",
          "name": "voter_ipfs",
          "type": "string"
        }
      ],
      "stateMutability": "view",
      "type": "function"
    },
    {
      "inputs": [
        {
          "internalType": "uint256",
          "name": "",
          "type": "uint256"
        }
      ],
      "name": "votersAddress",
      "outputs": [
        {
          "internalType": "address",
          "name": "",
          "type": "address"
        }
      ],
      "stateMutability": "view",
      "type": "function"
    },
    {
      "inputs": [],
      "name": "votingOrganizer",
      "outputs": [
        {
          "internalType": "address",
          "name": "",
          "type": "address"
        }
      ],
      "stateMutability": "view",
      "type": "function"
    }
  ],
  "bytecode": "0x608060405234801561001057600080fd5b5033600260006101000a81548173ffffffffffffffffffffffffffffffffffffffff021916908373ffffffffffffffffffffffffffffffffffffffff16021790555061286a806100616000396000f3fe608060405234801561001057600080fd5b50600436106101165760003560e01c80638ab66a90116100a2578063b28d92ae11610071578063b28d92ae1461031c578063b63c82ca1461033a578063b9be315214610370578063c91ec7121461038e578063f7522a83146103aa57610116565b80638ab66a901461025b5780638fb4cd8014610291578063a3ec138d146102c7578063a7388967146102fe57610116565b806343242daa116100e957806343242daa146101a35780635cc48aa7146101d35780635f74bbde146101f157806370218b851461020d5780637831ffb31461022b57610116565b80630361419e1461011b57806305ad45a41461013757806313182dce146101555780633a88251a14610173575b600080fd5b61013560048036038101906101309190611c6d565b6103c8565b005b61013f610677565b60405161014c9190611d41565b60405180910390f35b61015d610684565b60405161016a9190611e1a565b60405180910390f35b61018d60048036038101906101889190611e68565b610712565b60405161019a9190611ea4565b60405180910390f35b6101bd60048036038101906101b89190611e68565b610751565b6040516101ca9190611ea4565b60405180910390f35b6101db610790565b6040516101e89190611ea4565b60405180910390f35b61020b60048036038101906102069190611ebf565b6107b6565b005b61021561097b565b6040516102229190611e1a565b60405180910390f35b61024560048036038101906102409190611e68565b610a09565b6040516102529190611ea4565b60405180910390f35b61027560048036038101906102709190611eff565b610a48565b6040516102889796959493929190611fb4565b60405180910390f35b6102ab60048036038101906102a69190611eff565b610cca565b6040516102be979695949392919061205a565b60405180910390f35b6102e160048036038101906102dc9190611eff565b611092565b6040516102f59897969594939291906120de565b60405180910390f35b61030661129f565b6040516103139190611d41565b60405180910390f35b6103246112ab565b6040516103319190611e1a565b60405180910390f35b610354600480360381019061034f9190611eff565b611339565b6040516103679796959493929190612171565b60405180910390f35b610378611780565b6040516103859190611d41565b60405180910390f35b6103a860048036038101906103a391906121fc565b61178c565b005b6103b26119e1565b6040516103bf9190611d41565b60405180910390f35b3373ffffffffffffffffffffffffffffffffffffffff16600260009054906101000a900473ffffffffffffffffffffffffffffffffffffffff1673ffffffffffffffffffffffffffffffffffffffff1614610458576040517f08c379a000000000000000000000000000000000000000000000000000000000815260040161044f90612359565b60405180910390fd5b61046260006119ee565b600061046e6000611a04565b90506000600760008773ffffffffffffffffffffffffffffffffffffffff1673ffffffffffffffffffffffffffffffffffffffff168152602001908152602001600020905060008160040154146104fa576040517f08c379a00000000000000000000000000000000000000000000000000000000081526004016104f1906123eb565b60405180910390fd5b8181600001819055508481600101908051906020019061051b929190611a12565b5083816002019080519060200190610534929190611a12565b50858160030160006101000a81548173ffffffffffffffffffffffffffffffffffffffff021916908373ffffffffffffffffffffffffffffffffffffffff1602179055506001816004018190555060008160050160006101000a81548160ff0219169083151502179055506103e88160060181905550828160070190805190602001906105c2929190611a12565b506006869080600181540180825580915050600190039060005260206000200160009091909190916101000a81548173ffffffffffffffffffffffffffffffffffffffff021916908373ffffffffffffffffffffffffffffffffffffffff1602179055507fa82760a4fb77b1af9728c15d96987c3f10b4f156d752048393e8518ae42a4a6e82868689600160006103e88a60405161066798979695949392919061248b565b60405180910390a1505050505050565b6000600680549050905090565b6060600580548060200260200160405190810160405280929190818152602001828054801561070857602002820191906000526020600020905b8160009054906101000a900473ffffffffffffffffffffffffffffffffffffffff1673ffffffffffffffffffffffffffffffffffffffff16815260200190600101908083116106be575b5050505050905090565b6003818154811061072257600080fd5b906000526020600020016000915054906101000a900473ffffffffffffffffffffffffffffffffffffffff1681565b6006818154811061076157600080fd5b906000526020600020016000915054906101000a900473ffffffffffffffffffffffffffffffffffffffff1681565b600260009054906101000a900473ffffffffffffffffffffffffffffffffffffffff1681565b6000600760003373ffffffffffffffffffffffffffffffffffffffff1673ffffffffffffffffffffffffffffffffffffffff16815260200190815260200160002090508060050160009054906101000a900460ff161561084b576040517f08c379a00000000000000000000000000000000000000000000000000000000081526004016108429061256a565b60405180910390fd5b600081600401541415610893576040517f08c379a000000000000000000000000000000000000000000000000000000000815260040161088a906125d6565b60405180910390fd5b60018160050160006101000a81548160ff0219169083151502179055508181600601819055506005339080600181540180825580915050600190039060005260206000200160009091909190916101000a81548173ffffffffffffffffffffffffffffffffffffffff021916908373ffffffffffffffffffffffffffffffffffffffff1602179055506001600460008573ffffffffffffffffffffffffffffffffffffffff1673ffffffffffffffffffffffffffffffffffffffff168152602001908152602001600020600301600082825461096f9190612625565b92505081905550505050565b606060038054806020026020016040519081016040528092919081815260200182805480156109ff57602002820191906000526020600020905b8160009054906101000a900473ffffffffffffffffffffffffffffffffffffffff1673ffffffffffffffffffffffffffffffffffffffff16815260200190600101908083116109b5575b5050505050905090565b60058181548110610a1957600080fd5b906000526020600020016000915054906101000a900473ffffffffffffffffffffffffffffffffffffffff1681565b6004602052806000526040600020600091509050806000015490806001018054610a71906126aa565b80601f0160208091040260200160405190810160405280929190818152602001828054610a9d906126aa565b8015610aea5780601f10610abf57610100808354040283529160200191610aea565b820191906000526020600020905b815481529060010190602001808311610acd57829003601f168201915b505050505090806002018054610aff906126aa565b80601f0160208091040260200160405190810160405280929190818152602001828054610b2b906126aa565b8015610b785780601f10610b4d57610100808354040283529160200191610b78565b820191906000526020600020905b815481529060010190602001808311610b5b57829003601f168201915b505050505090806003015490806004018054610b93906126aa565b80601f0160208091040260200160405190810160405280929190818152602001828054610bbf906126aa565b8015610c0c5780601f10610be157610100808354040283529160200191610c0c565b820191906000526020600020905b815481529060010190602001808311610bef57829003601f168201915b5050505050908060050160009054906101000a900473ffffffffffffffffffffffffffffffffffffffff1690806006018054610c47906126aa565b80601f0160208091040260200160405190810160405280929190818152602001828054610c73906126aa565b8015610cc05780601f10610c9557610100808354040283529160200191610cc0565b820191906000526020600020905b815481529060010190602001808311610ca357829003601f168201915b5050505050905087565b600060608060006060600080600760008973ffffffffffffffffffffffffffffffffffffffff1673ffffffffffffffffffffffffffffffffffffffff16815260200190815260200160002060000154600760008a73ffffffffffffffffffffffffffffffffffffffff1673ffffffffffffffffffffffffffffffffffffffff168152602001908152602001600020600101600760008b73ffffffffffffffffffffffffffffffffffffffff1673ffffffffffffffffffffffffffffffffffffffff168152602001908152602001600020600201600760008c73ffffffffffffffffffffffffffffffffffffffff1673ffffffffffffffffffffffffffffffffffffffff16815260200190815260200160002060030160009054906101000a900473ffffffffffffffffffffffffffffffffffffffff16600760008d73ffffffffffffffffffffffffffffffffffffffff1673ffffffffffffffffffffffffffffffffffffffff168152602001908152602001600020600701600760008e73ffffffffffffffffffffffffffffffffffffffff1673ffffffffffffffffffffffffffffffffffffffff16815260200190815260200160002060060154600760008f73ffffffffffffffffffffffffffffffffffffffff1673ffffffffffffffffffffffffffffffffffffffff16815260200190815260200160002060050160009054906101000a900460ff16858054610ee1906126aa565b80601f0160208091040260200160405190810160405280929190818152602001828054610f0d906126aa565b8015610f5a5780601f10610f2f57610100808354040283529160200191610f5a565b820191906000526020600020905b815481529060010190602001808311610f3d57829003601f168201915b50505050509550848054610f6d906126aa565b80601f0160208091040260200160405190810160405280929190818152602001828054610f99906126aa565b8015610fe65780601f10610fbb57610100808354040283529160200191610fe6565b820191906000526020600020905b815481529060010190602001808311610fc957829003601f168201915b50505050509450828054610ff9906126aa565b80601f0160208091040260200160405190810160405280929190818152602001828054611025906126aa565b80156110725780601f1061104757610100808354040283529160200191611072565b820191906000526020600020905b81548152906001019060200180831161105557829003601f168201915b505050505092509650965096509650965096509650919395979092949650565b60076020528060005260406000206000915090508060000154908060010180546110bb906126aa565b80601f01602080910402602001604051908101604052809291908181526020018280546110e7906126aa565b80156111345780601f1061110957610100808354040283529160200191611134565b820191906000526020600020905b81548152906001019060200180831161111757829003601f168201915b505050505090806002018054611149906126aa565b80601f0160208091040260200160405190810160405280929190818152602001828054611175906126aa565b80156111c25780601f10611197576101008083540402835291602001916111c2565b820191906000526020600020905b8154815290600101906020018083116111a557829003601f168201915b5050505050908060030160009054906101000a900473ffffffffffffffffffffffffffffffffffffffff16908060040154908060050160009054906101000a900460ff169080600601549080600701805461121c906126aa565b80601f0160208091040260200160405190810160405280929190818152602001828054611248906126aa565b80156112955780601f1061126a57610100808354040283529160200191611295565b820191906000526020600020905b81548152906001019060200180831161127857829003601f168201915b5050505050905088565b60018060000154905081565b6060600680548060200260200160405190810160405280929190818152602001828054801561132f57602002820191906000526020600020905b8160009054906101000a900473ffffffffffffffffffffffffffffffffffffffff1673ffffffffffffffffffffffffffffffffffffffff16815260200190600101908083116112e5575b5050505050905090565b60608060006060600060606000600460008973ffffffffffffffffffffffffffffffffffffffff1673ffffffffffffffffffffffffffffffffffffffff168152602001908152602001600020600101600460008a73ffffffffffffffffffffffffffffffffffffffff1673ffffffffffffffffffffffffffffffffffffffff168152602001908152602001600020600201600460008b73ffffffffffffffffffffffffffffffffffffffff1673ffffffffffffffffffffffffffffffffffffffff16815260200190815260200160002060030154600460008c73ffffffffffffffffffffffffffffffffffffffff1673ffffffffffffffffffffffffffffffffffffffff168152602001908152602001600020600401600460008d73ffffffffffffffffffffffffffffffffffffffff1673ffffffffffffffffffffffffffffffffffffffff16815260200190815260200160002060000154600460008e73ffffffffffffffffffffffffffffffffffffffff1673ffffffffffffffffffffffffffffffffffffffff168152602001908152602001600020600601600460008f73ffffffffffffffffffffffffffffffffffffffff1673ffffffffffffffffffffffffffffffffffffffff16815260200190815260200160002060050160009054906101000a900473ffffffffffffffffffffffffffffffffffffffff16868054611543906126aa565b80601f016020809104026020016040519081016040528092919081815260200182805461156f906126aa565b80156115bc5780601f10611591576101008083540402835291602001916115bc565b820191906000526020600020905b81548152906001019060200180831161159f57829003601f168201915b505050505096508580546115cf906126aa565b80601f01602080910402602001604051908101604052809291908181526020018280546115fb906126aa565b80156116485780601f1061161d57610100808354040283529160200191611648565b820191906000526020600020905b81548152906001019060200180831161162b57829003601f168201915b5050505050955083805461165b906126aa565b80601f0160208091040260200160405190810160405280929190818152602001828054611687906126aa565b80156116d45780601f106116a9576101008083540402835291602001916116d4565b820191906000526020600020905b8154815290600101906020018083116116b757829003601f168201915b505050505093508180546116e7906126aa565b80601f0160208091040260200160405190810160405280929190818152602001828054611713906126aa565b80156117605780601f1061173557610100808354040283529160200191611760565b820191906000526020600020905b81548152906001019060200180831161174357829003601f168201915b505050505091509650965096509650965096509650919395979092949650565b60008060000154905081565b3373ffffffffffffffffffffffffffffffffffffffff16600260009054906101000a900473ffffffffffffffffffffffffffffffffffffffff1673ffffffffffffffffffffffffffffffffffffffff161461181c576040517f08c379a00000000000000000000000000000000000000000000000000000000081526004016118139061274e565b60405180910390fd5b61182660016119ee565b60006118326001611a04565b90506000600460008873ffffffffffffffffffffffffffffffffffffffff1673ffffffffffffffffffffffffffffffffffffffff16815260200190815260200160002090508481600201908051906020019061188f929190611a12565b50858160010190805190602001906118a8929190611a12565b5081816000018190555060008160030181905550838160040190805190602001906118d4929190611a12565b50868160050160006101000a81548173ffffffffffffffffffffffffffffffffffffffff021916908373ffffffffffffffffffffffffffffffffffffffff16021790555082816006019080519060200190611930929190611a12565b506003879080600181540180825580915050600190039060005260206000200160009091909190916101000a81548173ffffffffffffffffffffffffffffffffffffffff021916908373ffffffffffffffffffffffffffffffffffffffff1602179055507f5c2d83ca8d8b17f090cc5ed7795e3a1fd167f0be5045792a875b8930e909111a8287876000888c896040516119d097969594939291906127a9565b60405180910390a150505050505050565b6000600380549050905090565b6001816000016000828254019250508190555050565b600081600001549050919050565b828054611a1e906126aa565b90600052602060002090601f016020900481019282611a405760008555611a87565b82601f10611a5957805160ff1916838001178555611a87565b82800160010185558215611a87579182015b82811115611a86578251825591602001919060010190611a6b565b5b509050611a949190611a98565b5090565b5b80821115611ab1576000816000905550600101611a99565b5090565b6000604051905090565b600080fd5b600080fd5b600073ffffffffffffffffffffffffffffffffffffffff82169050919050565b6000611af482611ac9565b9050919050565b611b0481611ae9565b8114611b0f57600080fd5b50565b600081359050611b2181611afb565b92915050565b600080fd5b600080fd5b6000601f19601f8301169050919050565b7f4e487b7100000000000000000000000000000000000000000000000000000000600052604160045260246000fd5b611b7a82611b31565b810181811067ffffffffffffffff82111715611b9957611b98611b42565b5b80604052505050565b6000611bac611ab5565b9050611bb88282611b71565b919050565b600067ffffffffffffffff821115611bd857611bd7611b42565b5b611be182611b31565b9050602081019050919050565b82818337600083830152505050565b6000611c10611c0b84611bbd565b611ba2565b905082815260208101848484011115611c2c57611c2b611b2c565b5b611c37848285611bee565b509392505050565b600082601f830112611c5457611c53611b27565b5b8135611c64848260208601611bfd565b91505092915050565b60008060008060808587031215611c8757611c86611abf565b5b6000611c9587828801611b12565b945050602085013567ffffffffffffffff811115611cb657611cb5611ac4565b5b611cc287828801611c3f565b935050604085013567ffffffffffffffff811115611ce357611ce2611ac4565b5b611cef87828801611c3f565b925050606085013567ffffffffffffffff811115611d1057611d0f611ac4565b5b611d1c87828801611c3f565b91505092959194509250565b6000819050919050565b611d3b81611d28565b82525050565b6000602082019050611d566000830184611d32565b92915050565b600081519050919050565b600082825260208201905092915050565b6000819050602082019050919050565b611d9181611ae9565b82525050565b6000611da38383611d88565b60208301905092915050565b6000602082019050919050565b6000611dc782611d5c565b611dd18185611d67565b9350611ddc83611d78565b8060005b83811015611e0d578151611df48882611d97565b9750611dff83611daf565b925050600181019050611de0565b5085935050505092915050565b60006020820190508181036000830152611e348184611dbc565b905092915050565b611e4581611d28565b8114611e5057600080fd5b50565b600081359050611e6281611e3c565b92915050565b600060208284031215611e7e57611e7d611abf565b5b6000611e8c84828501611e53565b91505092915050565b611e9e81611ae9565b82525050565b6000602082019050611eb96000830184611e95565b92915050565b60008060408385031215611ed657611ed5611abf565b5b6000611ee485828601611b12565b9250506020611ef585828601611e53565b9150509250929050565b600060208284031215611f1557611f14611abf565b5b6000611f2384828501611b12565b91505092915050565b600081519050919050565b600082825260208201905092915050565b60005b83811015611f66578082015181840152602081019050611f4b565b83811115611f75576000848401525b50505050565b6000611f8682611f2c565b611f908185611f37565b9350611fa0818560208601611f48565b611fa981611b31565b840191505092915050565b600060e082019050611fc9600083018a611d32565b8181036020830152611fdb8189611f7b565b90508181036040830152611fef8188611f7b565b9050611ffe6060830187611d32565b81810360808301526120108186611f7b565b905061201f60a0830185611e95565b81810360c08301526120318184611f7b565b905098975050505050505050565b60008115159050919050565b6120548161203f565b82525050565b600060e08201905061206f600083018a611d32565b81810360208301526120818189611f7b565b905081810360408301526120958188611f7b565b90506120a46060830187611e95565b81810360808301526120b68186611f7b565b90506120c560a0830185611d32565b6120d260c083018461204b565b98975050505050505050565b6000610100820190506120f4600083018b611d32565b8181036020830152612106818a611f7b565b9050818103604083015261211a8189611f7b565b90506121296060830188611e95565b6121366080830187611d32565b61214360a083018661204b565b61215060c0830185611d32565b81810360e08301526121628184611f7b565b90509998505050505050505050565b600060e082019050818103600083015261218b818a611f7b565b9050818103602083015261219f8189611f7b565b90506121ae6040830188611d32565b81810360608301526121c08187611f7b565b90506121cf6080830186611d32565b81810360a08301526121e18185611f7b565b90506121f060c0830184611e95565b98975050505050505050565b600080600080600060a0868803121561221857612217611abf565b5b600061222688828901611b12565b955050602086013567ffffffffffffffff81111561224757612246611ac4565b5b61225388828901611c3f565b945050604086013567ffffffffffffffff81111561227457612273611ac4565b5b61228088828901611c3f565b935050606086013567ffffffffffffffff8111156122a1576122a0611ac4565b5b6122ad88828901611c3f565b925050608086013567ffffffffffffffff8111156122ce576122cd611ac4565b5b6122da88828901611c3f565b9150509295509295909350565b7f4f6e6c792074686520766f74696e67206f7267616e697a65722063616e20637260008201527f6561746520766f74657273000000000000000000000000000000000000000000602082015250565b6000612343602b83611f37565b915061234e826122e7565b604082019050919050565b6000602082019050818103600083015261237281612336565b9050919050565b7f566f74657220616c72656164792065786973747320776974682074686973206160008201527f6464726573730000000000000000000000000000000000000000000000000000602082015250565b60006123d5602683611f37565b91506123e082612379565b604082019050919050565b60006020820190508181036000830152612404816123c8565b9050919050565b6000819050919050565b6000819050919050565b600061243a6124356124308461240b565b612415565b611d28565b9050919050565b61244a8161241f565b82525050565b6000819050919050565b600061247561247061246b84612450565b612415565b611d28565b9050919050565b6124858161245a565b82525050565b6000610100820190506124a1600083018b611d32565b81810360208301526124b3818a611f7b565b905081810360408301526124c78189611f7b565b90506124d66060830188611e95565b6124e36080830187612441565b6124f060a083018661204b565b6124fd60c083018561247c565b81810360e083015261250f8184611f7b565b90509998505050505050505050565b7f596f752061726520766f74656400000000000000000000000000000000000000600082015250565b6000612554600d83611f37565b915061255f8261251e565b602082019050919050565b6000602082019050818103600083015261258381612547565b9050919050565b7f596f752068617665206e6f7420616c6c6f77656420746f20766f746500000000600082015250565b60006125c0601c83611f37565b91506125cb8261258a565b602082019050919050565b600060208201905081810360008301526125ef816125b3565b9050919050565b7f4e487b7100000000000000000000000000000000000000000000000000000000600052601160045260246000fd5b600061263082611d28565b915061263b83611d28565b9250827fffffffffffffffffffffffffffffffffffffffffffffffffffffffffffffffff038211156126705761266f6125f6565b5b828201905092915050565b7f4e487b7100000000000000000000000000000000000000000000000000000000600052602260045260246000fd5b600060028204905060018216806126c257607f821691505b602082108114156126d6576126d561267b565b5b50919050565b7f4f6e6c792074686520766f74696e67206f7267616e697a65722063616e20637260008201527f656174652063616e646964617465730000000000000000000000000000000000602082015250565b6000612738602f83611f37565b9150612743826126dc565b604082019050919050565b600060208201905081810360008301526127678161272b565b9050919050565b6000819050919050565b600061279361278e6127898461276e565b612415565b611d28565b9050919050565b6127a381612778565b82525050565b600060e0820190506127be600083018a611d32565b81810360208301526127d08189611f7b565b905081810360408301526127e48188611f7b565b90506127f3606083018761279a565b81810360808301526128058186611f7b565b905061281460a0830185611e95565b81810360c08301526128268184611f7b565b90509897505050505050505056fea2646970667358221220acc2fa8080709982cc02d3a99f96bfe879f4bc8aa764076645d15d6959e5327c64736f6c63430008090033",
  "linkReferences": {},
  "deployedLinkReferences": {}
}